:020000040000FA
:100000000C94E0000C9408010C9408010C947D09F8
:100010000C947D090C947D090C9408010C94080142
:100020000C9408010C9408010C943D080C94E7080A
:100030000C94F6070C9408010C9408010C94080128
:100040000C94AC070C9408010C947A070C94540798
:100050000C9408010C9408010C9408010C940801FC
:100060000C9408010C94080100407A10F35A00A087
:10007000724E18090010A5D4E80000E87648170071
:1000800000E40B54020000CA9A3B000000E1F505B1
:10009000000080969800000040420F000000A086FB
:1000A00001000000102700000000E803000000002D
:1000B0006400000000000A000000000001000000D1
:1000C00000002C76D888DC674F0823DFC1DFAE59EB
:1000D000E1B1B796E5E3E453C63AE651997696E87E
:1000E000E6C28426EB898C9B62ED407C6FFCEFBC02
:1000F0009C9F40F2BAA56FA5F490055A2AF75C932D
:100100006B6CF9676DC11BFCE0E40D47FEF520E662
:10011000B500D0ED902E0300943577050080841E45
:10012000080000204E0A000000C80C333333330FA0
:10013000986E12831141EF8D2114893BE65516CF3D
:10014000FEE6DB18D1844B381BF77C1D901DA4BB49
:10015000E424203284725E228100C9F124ECA1E5FE
:100160003D2700000000240027002A0000000008AE
:10017000000201000003040700000000000000006E
:1001800000000000230026002900000000002500D8
:1001900028002B00040404040404040402020202E4
:1001A000020203030303030301020408102040803A
:1001B000010204081020010204081020F50937117B
:1001C00011241FBECFEFD8E0DEBFCDBF24E0A0ECEE
:1001D000B1E001C01D92AE32B207E1F711E0A0E03C
:1001E000B1E0E0EBF0E302C005900D92A03CB10756
:1001F000D9F710E0CFEDD0E004C02197FE010E94B6
:100200000516CE3DD107C9F70E947C0B0C944B1804
:100210000C9400000895AF92BF92CF92DF92EF92BC
:10022000FF920F931F93CF93DF936C017B018B01A0
:10023000040F151FEB015E01AE18BF08C017D107F0
:1002400059F06991D601ED91FC910190F081E02D7A
:10025000C6010995892B79F7C501DF91CF911F91CF
:100260000F91FF90EF90DF90CF90BF90AF900895E7
:10027000FC01538D448D252F30E0842F90E0821BAC
:10028000930B541710F0CF96089501970895FC0131
:10029000918D828D981761F0A28DAE0FBF2FB11D89
:1002A0005D968C91928D9F5F9F73928F90E00895E1
:1002B0008FEF9FEF0895FC01918D828D981731F09B
:1002C000828DE80FF11D858D90E008958FEF9FEFEF
:1002D0000895FC01918D228D892F90E0805C9F4FC5
:1002E000821B91098F739927089585EB92E00E94F4
:1002F000690121E0892B09F420E0822F089580E034
:1003000090E0892B29F00E94750181110C94000066
:100310000895FC01A48DA80FB92FB11DA35ABF4F9A
:100320002C91848D90E001968F739927848FA689F4
:10033000B7892C93A089B1898C91837080648C9348
:10034000938D848D981306C00288F389E02D8081F7
:100350008F7D80830895EF92FF920F931F93CF9329
:10036000DF93EC0181E0888F9B8D8C8D98131AC0F0
:10037000E889F989808185FF15C09FB7F894EE89D7
:10038000FF896083E889F989808183708064808334
:100390009FBF81E090E0DF91CF911F910F91FF907F
:1003A000EF900895F62E0B8D10E00F5F1F4F0F7327
:1003B0001127E02E8C8D8E110CC00FB607FCFACFE2
:1003C000E889F989808185FFF5CFCE010E948901F6
:1003D000F1CFEB8DEC0FFD2FF11DE35AFF4FF082B3
:1003E0009FB7F8940B8FEA89FB8980818062CFCF19
:1003F000CF93DF93EC01888D8823B9F0AA89BB895C
:10040000E889F9898C9185FD03C0808186FD0DC046
:100410000FB607FCF7CF8C9185FFF2CF808185FF67
:10042000EDCFCE010E948901E9CFDF91CF910895F0
:1004300090E0FC01E459FE4F2491FC01E855FE4F89
:100440003491FC01EC56FE4FE491EE23C9F02223D7
:1004500039F0233001F1A8F4213019F1223029F1CB
:10046000F0E0EE0FFF1FE657FE4FA591B4918FB756
:10047000F894EC91611126C030953E233C938FBFD8
:1004800008952730A9F02830C9F0243049F7809129
:1004900080008F7D03C0809180008F7780938000E3
:1004A000DFCF84B58F7784BDDBCF84B58F7DFBCF65
:1004B0008091B0008F778093B000D2CF8091B00050
:1004C0008F7DF9CF3E2BDACFCF93DF9390E0FC0105
:1004D000E855FE4F24918C569E4FFC018491882351
:1004E000C9F090E0880F991FFC01EE59FE4FA591CD
:1004F000B491FC01E657FE4FC591D49161110DC036
:100500009FB7F8948C91209582238C93888128231F
:1005100028839FBFDF91CF910895623051F49FB738
:10052000F8943C91822F809583238C93E8812E2B25
:10053000EFCF8FB7F894EC912E2B2C938FBFEACF8F
:100540003FB7F89480919F029091A002A091A102E0
:10055000B091A20226B5A89B05C02F3F19F00196C5
:10056000A11DB11D3FBFBA2FA92F982F8827BC010D
:10057000CD01620F711D811D911D42E0660F771F35
:10058000881F991F4A95D1F708952FB7F894609165
:100590009B0270919C0280919D0290919E022FBFC0
:1005A00008950F931F93CF93DF93EC010E94C50230
:1005B000688779878A879B87E881F9810284F38538
:1005C000E02DCE01099597FF15C00E94C502088550
:1005D00019852A853B85601B710B820B930B0C815F
:1005E0001D812E813F81601771078207930720F3D9
:1005F0008FEF9FEFDF91CF911F910F910895509151
:10060000AB024091AA02852F90E0242F30E05417CE
:1006100018F0821B930B0895805B9F4FFACF809157
:10062000AB02E091AA028E1751F0EF5FE03508F0BF
:10063000E0E0F0E0E65BFD4F808190E008958FEF11
:100640009FEF08958091AB029091AA02891769F0FB
:100650009F5F903508F090E0E92FF0E0E65BFD4FFA
:1006600080819093AA0290E008958FEF9FEF089504
:10067000CF93DF93EC018A859B85AC85BD858E8306
:100680009F83A887B9870E94C5026A837B838C8376
:100690009D8381E089838883DF91CF910895CF93F3
:1006A000DF93EC018E819F81A885B9858A839B8326
:1006B000AC83BD830E94C5026A877B878C879D8738
:1006C00081E089838883DF91CF9108952091A502ED
:1006D0003091A6022817390771F49091A3028091F6
:1006E000A402981741F0E091A302F0E0E054FE4F1D
:1006F000808190E008958FEF9FEF08950895EF9225
:10070000FF920F931F93CF93DF93DC015C96ED90E4
:10071000FC905D97E114F10479F481E090E0139688
:100720009C938E93129790E080E0DF91CF911F9180
:100730000F91FF90EF9008955196ED91FC91529793
:1007400050968C915097982F90950FB75E962C915C
:100750005E97122F127021FD6095F894208111236D
:1007600019F1282B2083E7012197F1F728E0462F84
:1007700050E0308160FF1AC0382B3083E7012197A9
:10078000F1F7BA0175956795215089F7112381F02A
:100790008081892380830FBF5C968D919C91019706
:1007A000F1F781E090E0C1CF2923DCCF3923E5CFF9
:1007B0009081892BEFCF2091A5023091A6022817B6
:1007C000390771F48091A4022091A30290E0805C2B
:1007D0009F4F821B910960E470E00E94CF1508953D
:1007E00090E080E008952091A5023091A60228179C
:1007F0003907B9F49091A3028091A402981789F067
:10080000E091A302F0E0E054FE4F80812091A3022A
:1008100030E02F5F3F4F2F7333272093A30290E0E8
:1008200008958FEF9FEF08958091A9028111FCCF69
:1008300008958091A8028F5F843408F080E0909141
:10084000A7029817E1F32FB7F8949091A902992382
:1008500059F0E82FF0E0E050FE4F60838093A8024B
:100860002FBF81E090E0089581E08093A90260931A
:1008700045021092440282E086BB80916F00826044
:1008800080936F00809180008F7B806880938000D0
:100890008091840090918500409690938900809388
:1008A0008800DECF90E080E00895FB0101900020F9
:1008B000E9F73197AF01461B570BDC01ED91FC9135
:1008C0000280F381E02D09940F931F93CF93DF9360
:1008D000EC01FB014481558160817181E881F981DE
:1008E0000280F381E02D09958C016CE371E0CE016B
:1008F0000E945504800F911FDF91CF911F910F919E
:1009000008950F931F93CF93DF93EC010E9455043A
:100910008C016CE371E0CE010E945504800F911FA1
:10092000DF91CF911F910F910895FC0180819181FA
:10093000009711F00C94C31608954F925F926F9236
:100940007F92AF92BF92CF92DF92EF92FF920F937E
:100950001F93CF93DF93CDB7DEB7C456D1090FB63F
:10096000F894DEBF0FBECDBF5C018E010F5F1F4F3D
:1009700084E6F80111928A95E9F70E94A0022B0102
:100980003C0184E6C82ED12CE12CF12C0E94A0025F
:100990006419750986099709683E734081059105B8
:1009A000A8F3F1E0CF1AD108E108F10828EE420ED1
:1009B00023E0521E611C711CC114D104E104F10436
:1009C00029F78BE094E00E94DB03181619062CF43B
:1009D0008BE094E00E94F303F4CFF501808188233B
:1009E00029F0B5018BE094E00E9481040E94C502C9
:1009F0006B017C01B12C8BE094E00E94DB03892B1E
:100A000081F08BE094E00E94F303F801EB0DF11DFF
:100A10008083B3946FE371E0C8010E943118892B81
:100A200041F50E94C5026C197D098E099F09603D40
:100A3000774081059105F8F2F12CB80185EB92E041
:100A40000E9481048F2DCC59DF4F0FB6F894DEBF82
:100A50000FBECDBFDF91CF911F910F91FF90EF900F
:100A6000DF90CF90BF90AF907F906F905F904F904E
:100A70000895FF24F394E1CF0F931F93CF93DF9357
:100A80008C01EB01FC01808191810097E1F068818C
:100A9000798161157105A9F0428153812C813D81D5
:100AA0004217530770F00E941B188C819D81F8013A
:100AB000958384831D821C82DF91CF911F910F91BA
:100AC00008950E94C31688819981F80191838083DB
:100AD0008A819B81938382838C819D81958384838A
:100AE000198218821B821A82E5CF2F923F924F9271
:100AF0005F926F927F928F929F92AF92BF92CF92AE
:100B0000DF92EF92FF920F931F93CF93DF93D82F33
:100B1000C92F8B010E948E1124E630E040E050E0A6
:100B20000E94E31549019B01AC0160E876E988E980
:100B300090E00E94BF156B017C01F80191828082D8
:100B4000ED2FFC2F2191822F022E000C990BC097C4
:100B50000A97C0F32E3239F51F0180E8882E86E906
:100B6000982E88E9A82EB12C9AE0492E512C612CA0
:100B7000712CF101C1911F010C2E000CDD0BE097CF
:100B8000CA30D10580F4C501B401A30192010E94CD
:100B9000E31549015A01DE010E940B16C60ED71E4D
:100BA000E81EF91EE6CFA5E0B0E0A70196010E947D
:100BB0008F146F5F7F4F8F4F9F4F23E030E040E0F7
:100BC00050E00E94E315F801228333834483558368
:100BD0001682DF91CF911F910F91FF90EF90DF90E0
:100BE000CF90BF90AF909F908F907F906F905F90CD
:100BF0004F903F902F9008951F93CF93DF93EC0178
:100C000018811D3209F42196CE010E948E119B019C
:100C1000AC01A4E6B0E00E948F14AB01BC01FE0160
:100C20002991822F022E000C990BC0970A97B8F3D6
:100C30002E3231F58181082E000C990BC0978A3035
:100C40009105F0F4AAE0A89F9001A99F300D11240E
:100C5000C901330FAA0BBB0B480F591F6A1F7B1F1B
:100C60008281082E000C990BC0978A30910540F4C0
:100C7000092E000CAA0BBB0B480F591F6A1F7B1FC4
:100C80001D3239F470956095509541955F4F6F4FC7
:100C90007F4FCB01BA01DF91CF911F9108950F9340
:100CA0001F93CF93DF93EC0188819981009759F0CE
:100CB0002A813B812617370730F081E0DF91CF9101
:100CC0001F910F9108958B016F5F7F4F0E944C170A
:100CD000009759F0998388831B830A832C813D8177
:100CE000232B59F7FC011082E8CF80E0E7CFEF9289
:100CF000FF920F931F93CF93DF936115710541F41A
:100D000080E0DF91CF911F910F91FF90EF900895B8
:100D100041155105B1F07B01EC010C811D81040FDF
:100D2000151FB8010E944F06882351F3288139818D
:100D30008C819D81B701820F931F0E941B181D8318
:100D40000C8381E0DECFFB0144815581608171819C
:100D50000C947706EF92FF920F931F93CF93DF933C
:100D6000EC017B018A01BA010E944F06288139817A
:100D7000811114C02115310519F0C9010E94C31653
:100D8000198218821D821C821B821A82CE01DF9179
:100D9000CF911F910F91FF90EF9008951D830C83C9
:100DA000B701C9010E941B18F1CFFC01118210820A
:100DB000138212821582148250E040E06EE371E0EB
:100DC0000C94AA06EF92FF920F931F93CF93DF9399
:100DD00000D0CDB7DEB78C017B010E94D506C701DC
:100DE0000E94D10297FD0BC089831A8241E050E036
:100DF000BE016F5F7F4FC8010E947706F0CFC80128
:100E00000F900F90DF91CF911F910F91FF90EF9076
:100E10000895FB0101900020E9F73197AF01461BCF
:100E2000570B0C94AA06EF92FF920F931F93CF9348
:100E3000DF93CDB7DEB7A1970FB6F894DEBF0FBE34
:100E4000CDBF7C01CB01BA01F70111821082138260
:100E50001282158214828E010F5F1F4F26E048E038
:100E60000E947011009789F0BC01C7010E94090718
:100E7000A1960FB6F894DEBF0FBECDBFDF91CF9124
:100E80001F910F91FF90EF900895F701808191815C
:100E9000009711F00E94C316F7011182108215828B
:100EA000148213821282E4CF1F920F920FB60F9218
:100EB00011242F933F934F935F936F937F938F935F
:100EC0009F93AF93BF93EF93FF9385EB92E00E94C4
:100ED0008901FF91EF91BF91AF919F918F917F9188
:100EE0006F915F914F913F912F910F900FBE0F9097
:100EF0001F9018951F920F920FB60F9211242F93E7
:100F00008F939F93EF93FF93E091C502F091C602F8
:100F10008081E091CB02F091CC0282FD1BC09081D8
:100F20008091CE028F5F8F732091CF02821741F0A4
:100F3000E091CE02F0E0EB54FD4F958F8093CE020E
:100F4000FF91EF919F918F912F910F900FBE0F9076
:100F50001F9018958081F4CF1F920F920FB60F92B9
:100F600011242F933F938F939F93AF93BF938091BF
:100F70009B0290919C02A0919D02B0919E023091A3
:100F80009A0223E0230F2D3758F50196A11DB11DBC
:100F900020939A0280939B0290939C02A0939D02BF
:100FA000B0939E0280919F029091A002A091A10215
:100FB000B091A2020196A11DB11D80939F02909352
:100FC000A002A093A102B093A202BF91AF919F9102
:100FD0008F913F912F910F900FBE0F901F901895FA
:100FE00026E8230F0296A11DB11DD2CF1F920F92AA
:100FF0000FB60F9211242F938F939F93EF93FF932C
:1010000080916F008B7F80936F00809181008F7B38
:10101000809381008091AC022091490220589091E8
:101020004802893020F49695922B8F5FFACF9093E7
:1010300048028091AB028F5F803508F080E02091FC
:10104000AA02281739F0E82FF0E0E65BFD4F908305
:101050008093AB021092AC02809181008F7B8093D1
:10106000810010924902FF91EF919F918F912F91F2
:101070000F900FBE0F901F9018951F920F920FB6F2
:101080000F9211242F933F934F935F936F937F930E
:101090008F939F93AF93BF93EF93FF9380918600BD
:1010A0009091870040914902209181004423F1F101
:1010B0002F7B20938100109249023091AC023111B4
:1010C0003CC0411122C02091AD023091AE02280FE8
:1010D000391F30938B0020938A0024E026BB209197
:1010E0006F00246020936F002091AF023091B00216
:1010F000820F931F36952795280F391F309347028B
:101100002093460281E08093AC02FF91EF91BF9162
:10111000AF919F918F917F916F915F914F913F918F
:101120002F910F900FBE0F901F9018952064209361
:10113000810020E820934902C0CF4091460250919F
:1011400047026091AF027091B002DB01A095B095AB
:1011500020914802E0914902841B950BA817B9071A
:1011600068F126952E2B460F571F3F5F861B970B66
:101170003930A0F32093480280916F008B7F8093D9
:101180006F008091AB028F5F803508F080E0909116
:10119000AA02981749F0E82FF0E090914802E65B28
:1011A000FD4F90838093AB02809181008F7B809371
:1011B0008100109249021092AC02A7CF20934802FE
:1011C00050934702409346023093AC029ECF1F9249
:1011D0000F920FB60F9211242F933F934F935F936B
:1011E0006F937F938F939F93EF93FF932091A90227
:1011F0006091450280918800909189004091AF02F2
:101200005091B002309144022A3070F5840F951F3E
:10121000762F7170293009F471E066952F5F3717CA
:1012200099F3309180007723E1F0306C30938000A7
:1012300090938900809388007093440260934502E4
:101240002093A902FF91EF919F918F917F916F91D0
:101250005F914F913F912F910F900FBE0F901F9074
:1012600018953F7B3068E2CF3091A802E091A70249
:101270003E1319C02A3051F42BE02093A902840FA9
:10128000951F9093890080938800DCCF1092A9026B
:10129000809180008F738093800080916F008D7F9C
:1012A00080936F00CFCFEF5FE43408F0E0E0E0938D
:1012B000A702F0E0E050FE4F3081309345021092DB
:1012C0004402309180003F7B3068309380002A30A8
:1012D00071F42091AF023091B002820F931F90936E
:1012E00089008093880081E08093A902ABCF809130
:1012F0008400909185004096F2CF1F920F920FB616
:101300000F9211242F933F934F935F936F937F938B
:101310008F939F93AF93BF93EF93FF93E091A502B9
:10132000F091A602309749F0A685B7858585968D00
:1013300091FF14C09C918923A1F4FF91EF91BF917B
:10134000AF919F918F917F916F915F914F913F915D
:101350002F910F900FBE0F901F9018959C9189238D
:1013600061F7A389B4899C918589809589238C93A1
:10137000868997890197F1F7608D718DA685B7856C
:10138000558538E020E0CB010197F1F7822F90E0FE
:1013900095958795282F4C91452309F02068315069
:1013A00091F7868D81FD20958091A40290E00196B1
:1013B0008F7399273091A302381799F0A091A40256
:1013C000B0E0A054BE4F2C938093A402828D938DE5
:1013D0000197F1F7A389B4898C919589892B8C9316
:1013E000ACCF868D8160868FF1CF1092B8021092BB
:1013F000B70288EE93E0A0E0B0E08093B90290934A
:10140000BA02A093BB02B093BC022AE031E0309351
:10141000B6022093B50225EC30E03093C20220934F
:10142000C10224EC30E03093C4022093C30220ECCC
:1014300030E03093C6022093C50221EC30E03093B7
:10144000C8022093C70222EC30E03093CA022093F6
:10145000C90226EC30E03093CC022093CB021092EC
:10146000CE021092CF021092D0021092D1021092AE
:101470000E0410920D0480930F0490931004A09317
:101480001104B09312048CE191E090930C048093CA
:101490000B04109222041092210410922404109242
:1014A000230410922604109225041092280410920E
:1014B0002704609129046E7F6D7F609329046695EF
:1014C000617081E0682783E00E94180261E083E098
:1014D0000E946402EBEAF1E0E491E0931B04E7E987
:1014E000F1E0E491F0E0EE0FFF1FE657FE4F85912B
:1014F000949190931D0480931C0460E082E00E940C
:1015000064028091290481FD04C061E082E00E94B0
:10151000180282E080931704EAEAF1E0E491E09394
:101520001804E6E9F1E0E491F0E0EE0FFF1FE05867
:10153000FE4F2591349130931A0420931904109290
:1015400002041092010448EE53E060E070E0409322
:1015500003045093040460930504709306042EE280
:1015600031E0309300042093FF0310925203109255
:101570005303109255031092540310925603109285
:101580005703109258031092590310925A03109265
:101590005C0310925B0310925D0310925E03109245
:1015A0005F03109260031092610310926303109224
:1015B0006203109264031092650310926603109206
:1015C00067031092680310926A03109269031092E5
:1015D0006B0310926C0310926D0310926E031092C5
:1015E0006F03109274031092750310927603109299
:1015F000770310927803109279031092820310926D
:101600008303109284031092850310928603109234
:1016100087031092900310929103109296031092F8
:101620009703109298031092990310929E031092C0
:101630009F031092A4031092A5031092A603109288
:10164000A7031092AC031092AD031092B203109254
:10165000B3031092B4031092B5031092BA03109220
:10166000BB031092C0031092C1031092C2031092E8
:10167000C3031092C8031092C9031092CE031092B4
:10168000CF031092D0031092D1031092D603109280
:10169000D7038093E7031092E8031092E9031092B6
:1016A000EA031092EC031092EB031092EE031092F7
:1016B000ED031092EF031092F0031092F1031092D9
:1016C000F2031092F3031092F4031092F5031092B8
:1016D000F6031092F7031092F8031092F903109298
:1016E000FA031092FB031092FC031092FD03109278
:1016F000FE031092D8030895CF93DF93CDB7DEB7E2
:10170000AA970FB6F894DEBF0FBECDBF789484B50C
:10171000826084BD84B5816084BD85B5826085BDED
:1017200085B5816085BD80916E00816080936E007B
:10173000109281008091810082608093810080916D
:10174000810081608093810080918000816080931E
:1017500080008091B10084608093B1008091B000DE
:1017600081608093B00080917A00846080937A00D9
:1017700080917A00826080937A0080917A00816003
:1017800080937A0080917A00806880937A0010922A
:10179000C100E091C502F091C60282E08083E09131
:1017A000C102F091C2021082E091C302F091C40222
:1017B00080E180831092CD02E091C902F091CA02CB
:1017C00086E08083E091C702F091C8028081806149
:1017D0008083E091C702F091C80280818860808395
:1017E000E091C702F091C802808180688083E09117
:1017F000C702F091C80280818F7D808310922604F9
:1018000010922504109224041092230410922204B2
:10181000109221048DE991E090932804809327048D
:1018200090911704963108F047C02DEB30E03093CB
:101830002204209321042BE931E0309324042093E7
:1018400023042CE231E030932604209325042091D8
:10185000680084E0983048F031E09E3008F430E0D1
:1018600081E001C0880F3A95EAF7822B80936800E7
:101870002DE630E0983050F02BE630E09E3030F02E
:101880002CE630E0963110F030E020E030931F0479
:1018900020931E04292F30E0983008F096C081E094
:1018A00001C0880F9A95EAF780932004809127045D
:1018B000909128040197F1F78091250490912604D6
:1018C000892B49F1E091A502F091A60224E0EB30CA
:1018D000F20709F1309739F0A389B4899C91858981
:1018E000809589238C93809129048E7F809329048D
:1018F0001092A4021092A3028BE094E09093A602AF
:101900008093A502E0911E04F0911F0480819091C4
:101910002004892B808310926F001092800081E850
:101920008093810083E896E09093B0028093AF02A9
:101930008BE39CE39093AE028093AD0262E088E07B
:101940000E94640261E089E00E94180261E089E07F
:101950000E9464021092AC021092AB021092AA0292
:101960001092A9021092A8021092A70280E286BBF0
:1019700080936F0062E471E085EB92E00E94810445
:1019800082E591E00E949D0485E591E00E949D041E
:10199000DD24D39401E082E0C82E8BE094E00E9425
:1019A000DB03892BF9F06BE074E0CE0101960E9415
:1019B000E206BE016F5F7F4F85EB92E00E946404F8
:1019C000CE0101960E949504E8CF9E3040F4285045
:1019D000310981E001C0880F2A95EAF765CF2E50C2
:1019E0003109F7CF85EB92E00E946901892B91F0D4
:1019F00065EB72E0CE0101960E94E206BE016F5FC8
:101A00007F4F8BE094E00E946404CE0101960E9417
:101A10009504E8CF0E94C5028090B1029090B20276
:101A2000A090B302B090B4029B01AC01281939090F
:101A30004A095B0949015A0131E683163AEE9306D9
:101A4000A104B10408F4EEC36093B1027093B20232
:101A50008093B3029093B4020E94C5024B015C01D3
:101A60000E94C502681979098A099B09603D77407F
:101A70008105910508F0BBC28FEF93E00E94FF0241
:101A8000892B71F38FEF93E00E942203182F80912E
:101A9000EF039091F003A091F103B091F20301964E
:101AA000A11DB11D8093EF039093F003A093F10368
:101AB000B093F203143209F479C2E091E9031532CC
:101AC0000CF0BEC01A3019F01D3009F07CC2EF30A6
:101AD00008F033C1F0E0E852FC4F10827090D70359
:101AE000772009F42CC12091D803822F022E000CFC
:101AF000990B3FEB320F363008F0AEC0C797829596
:101B0000807F9091D903292F092E000C330B4FEBC6
:101B1000490F463008F0A8C027533109820F909131
:101B2000D6038913F7C08091FB039091FC03A09129
:101B3000FD03B091FE030196A11DB11D8093FB032F
:101B40009093FC03A093FD03B093FE038091EA03FE
:101B5000882399F08091F3039091F403A091F50309
:101B6000B091F6030196A11DB11D8093F3039093EC
:101B7000F403A093F503B093F603F090E703FF207E
:101B800009F47BC051E0F51234C084E793E00E9471
:101B90004F0382E893E00E944F038091EA03882379
:101BA00041F187E0E2E6F3E0A4E5B3E001900D92B5
:101BB0008A95E1F787E0E9E6F3E0ABE5B3E0019071
:101BC0000D928A95E1F70E94C502609370037093AD
:101BD00071038093720390937303F0925303F09216
:101BE000520380E993E00E9438038EE993E00E945B
:101BF0003803E090ED03F090EE03E114F10409F4F2
:101C000025C3E091ED03F091EE0366A177A1F70102
:101C100086A197A10E941218892B09F017C3B7015A
:101C2000C70140960E941B180E94C502F70160A3DD
:101C300071A382A393A3D5A2D4A2E2A4F3A4DDCF7F
:101C40001A3209F444CF1C3209F0BDC18091D60389
:101C500081278093D6033BCF2156263018F4875531
:101C600091094DCFC0974BCF9156963018F4275518
:101C7000310954CF2053310951CF82E893E00E94BB
:101C80004F038091EA03882321F187E0E2E6F3E045
:101C9000A4E5B3E001900D928A95E1F787E0E9E6CB
:101CA000F3E0ABE5B3E001900D928A95E1F70E9475
:101CB000C5026093700370937103809372039093D5
:101CC000730300935303009352038CEA93E00E9442
:101CD00038038091C4039091C503A091C603B091CD
:101CE000C7038093C0039093C103A093C203B09332
:101CF000C3030E94C5026093BC037093BD0380932D
:101D0000BE039093BF030093BB030093BA0388EC18
:101D100093E06DCF8091F7039091F803A091F903C0
:101D2000B091FA030196A11DB11D8093F703909322
:101D3000F803A093F903B093FA03712C87C2909132
:101D4000E803911144C06FE571E088ED93E00E94D3
:101D50001218892B41F065E671E088ED93E00E944E
:101D60001218892BF1F40093E7038091EB03909113
:101D7000EC039093EE038093ED03E090ED03F0907D
:101D8000EE03E114F104C9F268ED73E0F70186A1F6
:101D900097A10E94121897FF52C2F70182A593A53E
:101DA000E8CF6BE671E088ED93E00E941218892B72
:101DB00041F061E771E088ED93E00E941218892BF1
:101DC00019F41092E703D1CFC092E703CECFE09190
:101DD000E703E23009F448C08091D803882309F46E
:101DE00043C020E2E29FF0011124E92B3197E93250
:101DF000F10508F039C0E150F14F0C940516280F99
:101E0000690F700F770F7A0FA80FAF0FBC0FC90FB4
:101E1000340F340F340F340F340F340F340F340FAA
:101E2000340F340F340F340F340F340F340F340F9A
:101E3000340F340F340F340F340F340F340F280F96
:101E4000630F690F700F770F7A0F810F8E0F9B0F43
:101E500088ED93E00E94FC056093880370938903EA
:101E600080938A0390938B03E090ED03F090EE0350
:101E70007090E803E114F10409F45FCFE091ED0301
:101E8000F091EE0366A177A1F70186A197A10E94C8
:101E90001218892B09F051CFF70120A531A5872D04
:101EA00090E0821793070CF448CF2817390739F4CC
:101EB00040E150E068ED73E0C7010E942218F7018D
:101EC000E2A4F3A4D5CF91E0813409F445C090E0B9
:101ED00043C062E673E088ED93E00E947505C4CFCD
:101EE00091E0833509F090E090936803BDCF69E6F7
:101EF00073E0F1CF91E0873509F090E090936F03A4
:101F0000B3CF88ED93E00E94FC0560939A03709331
:101F10009B0380939C0390939D03A6CF88ED93E051
:101F20000E94FC056093A8037093A9038093AA0301
:101F30009093AB0399CF88ED93E00E948E1160934C
:101F40007A0370937B0380937C0390937D038CCF03
:101F500091E081330CF4BBCF9093EA0385CF88EDF9
:101F600093E00E948E116093C4037093C503809325
:101F7000C6039093C70378CF88ED93E00E94FC05D9
:101F80006093D2037093D3038093D4039093D503CB
:101F90006BCF88ED93E00E94FC056093B6037093CD
:101FA000B7038093B8039093B9035ECF1092E9030F
:101FB0001092E8031092D603C092E7031092D70361
:101FC0001092EA0359CDEE3040F481E08E0F8093F9
:101FD000E903F0E0E852FC4F10838091D7038111B0
:101FE0004BCD8091D60318271093D60345CDCE0153
:101FF00085960E94D506CE014F960E94D506109276
:102000005303609156037091570380915803909148
:1020100059030E94011428E23BE64EE65EE40E946A
:102020004D154B015C01609154037091550390E094
:1020300080E00E9401149B01AC01C501B4010E9423
:10204000E114AB01BC0180915A0381117058CE019B
:1020500001960E941307BE016F5F7F4FCE018596E8
:102060000E943C05CE0101960E94950410925303F4
:1020700060915D0370915E0380915F0390916003B6
:102080000E94011428E23BE64EE65EE40E944D15F4
:102090004B015C0160915B0370915C0390E080E018
:1020A0000E9401149B01AC01C501B4010E94E1141E
:1020B000AB01BC018091610381117058CE01019682
:1020C0000E941307BE016F5F7F4FCE014F960E94A3
:1020D0003C05CE0101960E9495041092AD0310922A
:1020E0007503109283031092910367E771E085EB0B
:1020F00092E00E94550449A55AA56DA17EA185EBE9
:1021000092E00E940B0162E871E085EB92E00E9490
:102110005504BE01615E7F4F85EB92E00E9464042E
:10212000CE0149960E94D506CE0143960E94D5065F
:102130006FE871E0CE0149960E940907BE016B5D10
:102140007F4FCE0149960E94A30645E050E06AEB1E
:1021500071E0CE0149960E947706BE01615E7F4F15
:10216000CE0149960E94A30618861F821A861986F8
:102170001C861B866F8D78A16115710531F04BA10E
:102180005CA1CE0107960E94AA061E861D86188AAB
:102190001F861A8A198A6DA17EA16115710531F019
:1021A00049A55AA5CE010D960E94AA06CE01019618
:1021B0000E94D5066FE871E0CE0101960E940907E2
:1021C000BE01635F7F4FCE0101960E94A30645E0EA
:1021D00050E06AEB71E0CE0101960E947706BE01E5
:1021E000695F7F4FCE0101960E94A306CE01019642
:1021F0000E949504CE010D960E949504CE0107968B
:102200000E949504CE0143960E949504CE01499602
:102210000E949504CE014F960E949504CE018596AA
:102220000E94950480E090E0892B09F4B6CB0E94CF
:102230007501882309F4B1CB0E940000AECB892B35
:1022400009F47BCD1092EE031092ED038091E80328
:102250008F5F8093E8031092E90381E01A3209F05E
:1022600080E08093D703772009F406CCF9CB8EE287
:1022700091E0909300048093FF0380916F008B7F27
:1022800080936F0080916F008F7D80936F008091AD
:10229000AA028093AB028091A9028111FCCF8091A8
:1022A0006F008D7F80936F008CE191E090930C0420
:1022B00080930B048091A5029091A6028B509440CC
:1022C00071F4E0911E04F0911F049081809120042C
:1022D0008095892380831092A6021092A50208950A
:1022E000EF920F931F93CF93DF93E80134E047FD04
:1022F00034E1042E000C550B57FF03C05195419556
:102300005109E32E022F242FAE010E94CA11CE01E3
:10231000DF91CF911F910F91EF9008951F93FC01D2
:1023200099278827BC01E89411911032E9F31930FC
:1023300010F01E30C8F31B3251F01D3249F468947E
:1023400006C00E94B511610F711D811D911D119173
:1023500010531A30B0F33EF49095809570956195C6
:102360007F4F8F4F9F4F1F910895592F482F372F21
:10237000262F660F771F881F991F660F771F881FEC
:10238000991F620F731F841F951F660F771F881F89
:10239000991F0895A9E0B0E0E0EDF1E10C94A014DC
:1023A0006A01F22EB02E102FFBE3AF2EA01608F418
:1023B0001BE31F5F012F27E0AE014F5F5F4F0E94BD
:1023C0002913BC018981982F9970913009F43FC07D
:1023D0009BE2E1FC04C09E2D9170E0FC3AC05E2DB2
:1023E0005071E82FE87083FF46C084E0911101C06E
:1023F00083E0EF2DE81B8F1508F0E0E0D6018E2F6B
:1024000020E2552351F1992329F0D6019C93C6016E
:1024100001966C0196012D5F3F4FE2FE24C08EE4D1
:10242000D6018C9391E411969C93119712968C93FC
:10243000D9018E2F90E281111BC0E20FF32FF11D05
:1024400010828EEF9FEF2996ECE00C94BC149DE275
:10245000C6CF90E2C4CF2D9381508111FCCFCE0E18
:10246000D11CE0E0D0CF8EE6D6018C9391E6DBCF95
:102470009D938150E0CF482F447082FF3DC084E09F
:10248000911101C083E08F1510F4EF2DE81BD601E8
:102490008E2F20E2552309F1992329F0D6019C9330
:1024A000C60101966C0196012D5F3F4FE2FE1BC0F5
:1024B00089E4D6018C938EE411968C93119786E46F
:1024C00012968C93D9018E2F90E2882309F4B5CF10
:1024D0009D938150FACF2D9381508111FCCFCE0E68
:1024E000D11CE0E0D9CF89E6D6018C938EE6119617
:1024F0008C93119786E6E4CF9B0177FF02C030E012
:1025000020E0A1E0B0E0911102C0B0E0A0E0F9014C
:102510003196AE0FBF1F8B2C912CBB2009F461C0EC
:102520005401EFEFAE1ABE0AAA0DBB1DFA161B0628
:1025300019F014F04F2D4A1B511188C0E3FC59C00B
:102540007601A42FB0E2A1114FC0C40ED11C992373
:1025500009F45BC040E0D6011196F60190836D014D
:10256000552309F448C0012F060F9A81582F507146
:1025700084FF03C0913309F4015010160CF047C0DA
:10258000093008F008E0EEE2FE2E5B01A01AB10867
:1025900085019194819491082F3F320729F4D60147
:1025A000FC92F60131966F016217730794F10217DE
:1025B00013077CF5DB01A21BB30BAA24A394B12C57
:1025C000AC0EBD1EAA0DBB1D11968C912150310978
:1025D000D601119628153905F4F0F60180836D01B6
:1025E000DBCFB12CA12CA0CFF701B1937F01A1507B
:1025F000AACF9111B0CFD601942F50E302C05D93C2
:1026000091509111FCCFC40ED11C40E0ACCF01E041
:10261000BACF80E3DBCF6217730731F4963388F4C7
:10262000953311F4552369F0F6018083FD01842F61
:1026300090E2811108C0A40FB11D1C9290E080E0CF
:1026400002CF81E3F1CF91938150F3CF911183CFEA
:102650008ACF283008F027E03327DA01990F311D9F
:1026600087FD916000966105710539F432602E5F37
:102670003D9330E32A95E1F708959F3F30F080388D
:102680007105610509F03C5F3C5F3D93913008F0B6
:102690008068911DDF93CF931F930F93FF92EF926A
:1026A000192F987F9695E92F96959695E90FFF2714
:1026B000EE53FF4F99273327EE24FF24A701E701AC
:1026C00005900894079428F4360FE71EF81E491F5A
:1026D000511D660F771F881F991F0694A1F705905B
:1026E000079428F4E70EF81E491F561FC11D770FE7
:1026F000881F991F661F0694A1F70590079428F478
:10270000F80E491F561FC71FD11D880F991F661F3E
:10271000771F0694A1F70590079420F4490F561FE0
:10272000C71FD81F990F661F771F881F0694A9F728
:1027300084911095177041F0D695C7955795479598
:10274000F794E7941A95C1F7E8E6F0E068941590DD
:10275000159135916591959105907FE27395E118FA
:10276000F10A430B560BC90BD009C0F7E10CF11E5F
:10277000431F561FC91FD01D7EF4703311F48A9574
:10278000E6CFE894015030F0080F0AF40027021752
:1027900008F4202F2395022F7A3328F079E37D93D4
:1027A0002A95E9F710C07D932A9589F606949795A6
:1027B0006795379517951794E118F10A430B560B57
:1027C000C90BD00998F023957E9173957A3308F060
:1027D00070E37C932013B8F77E9170617D9330F0A5
:1027E000839571E37D9370E32A95E1F71124EF90CF
:1027F000FF900F911F91CF91DF91992787FD9095C1
:102800000895E89409C097FB3EF4909580957095E3
:1028100061957F4F8F4F9F4F9923A9F0F92F96E92C
:10282000BB279395F695879577956795B795F111A1
:10283000F8CFFAF4BB0F11F460FF1BC06F5F7F4F3E
:102840008F4F9F4F16C0882311F096E911C0772350
:1028500021F09EE8872F762F05C0662371F096E859
:10286000862F70E060E02AF09A95660F771F881F28
:10287000DAF7880F9695879597F9089597F99F67E6
:1028800080E870E060E008959FEF80EC08950024F8
:102890000A941616170618060906089500240A94C5
:1028A00012161306140605060895092E0394000C4B
:1028B00011F4882352F0BB0F40F4BF2B11F460FFDA
:1028C00004C06F5F7F4F8F4F9F4F089557FD905803
:1028D000440F551F59F05F3F71F04795880F97FBE4
:1028E000991F61F09F3F79F087950895121613069E
:1028F0001406551FF2CF4695F1DF08C016161706CD
:102900001806991FF1CF8695710561050894089501
:10291000E894BB2766277727CB0197F908950E9493
:10292000D114A59F900DB49F900DA49F800D911D73
:10293000112408952F923F924F925F926F927F924F
:102940008F929F92AF92BF92CF92DF92EF92FF92BF
:102950000F931F93CF93DF93CDB7DEB7CA1BDB0B6B
:102960000FB6F894DEBF0FBECDBF09942A88398810
:1029700048885F846E847D848C849B84AA84B98417
:10298000C884DF80EE80FD800C811B81AA81B98123
:10299000CE0FD11D0FB6F894DEBF0FBECDBFED0137
:1029A0000895A29FB001B39FC001A39F700D811D28
:1029B0001124911DB29F700D811D1124911D089548
:1029C0005058BB27AA270E94F8140C9455140E9453
:1029D000471438F00E944E1420F039F49F3F19F448
:1029E00026F40C9444140EF4E095E7FB0C943E148A
:1029F000E92F0E94661458F3BA1762077307840719
:102A0000950720F079F4A6F50C9488140EF4E0955F
:102A10000B2EBA2FA02D0B01B90190010C01CA0198
:102A2000A0011124FF27591B99F0593F50F4503E43
:102A300068F11A16F040A22F232F342F4427585F35
:102A4000F3CF469537952795A795F0405395C9F74D
:102A50007EF41F16BA0B620B730B840BBAF0915005
:102A6000A1F0FF0FBB1F661F771F881FC2F70EC0A4
:102A7000BA0F621F731F841F48F487957795679577
:102A8000B795F7959E3F08F0B0CF9395880F08F063
:102A90009927EE0F9795879508950E9461150C94DC
:102AA00055140E944E1458F00E94471440F029F427
:102AB0005F3F29F00C943E1451110C9489140C942E
:102AC00044140E94661468F39923B1F3552391F3DB
:102AD000951B550BBB27AA2762177307840738F08D
:102AE0009F5F5F4F220F331F441FAA1FA9F335D0EA
:102AF0000E2E3AF0E0E832D091505040E695001C9E
:102B0000CAF72BD0FE2F29D0660F771F881FBB1F57
:102B1000261737074807AB07B0E809F0BB0B802D35
:102B2000BF01FF2793585F4F3AF09E3F510578F061
:102B30000C943E140C9489145F3FE4F3983ED4F354
:102B4000869577956795B795F7959F5FC9F7880F35
:102B5000911D9695879597F90895E1E0660F771F87
:102B6000881FBB1F621773078407BA0720F0621B18
:102B7000730B840BBA0BEE1F88F7E0950895DB0109
:102B80008F939F930E948F14BF91AF91A29F800D4E
:102B9000911DA39F900DB29F900D1124089597FB56
:102BA000072E16F4009407D077FD09D00E94131663
:102BB00007FC05D03EF4909581959F4F0895709540
:102BC00061957F4F0895A1E21A2EAA1BBB1BFD0140
:102BD0000DC0AA1FBB1FEE1FFF1FA217B307E407FC
:102BE000F50720F0A21BB30BE40BF50B661F771F54
:102BF000881F991F1A9469F7609570958095909534
:102C00009B01AC01BD01CF010895EE0FFF1F0590A0
:102C1000F491E02D0994B7FF0C948F140E948F1447
:102C2000821B930B0895AA1BBB1B51E107C0AA1F6F
:102C3000BB1FA617B70710F0A61BB70B881F991F5D
:102C40005A95A9F780959095BC01CD0108950F93F1
:102C50001F93CF93DF938230910510F482E090E0D0
:102C6000E0912C04F0912D0430E020E0B0E0A0E0F1
:102C7000309799F42115310509F44AC0281B390B06
:102C800024303105D8F58A819B816115710589F160
:102C9000FB0193838283FE0111C040815181028137
:102CA000138148175907E0F04817590799F410970E
:102CB00061F012960C93129713961C933296CF01E3
:102CC000DF91CF911F910F91089500932C041093E1
:102CD0002D04F4CF2115310551F04217530738F078
:102CE000A901DB019A01BD01DF01F801C1CFEF01AC
:102CF000F9CF90932D0480932C04CDCFFE01E20FE9
:102D0000F31F819391932250310939832883D7CFC0
:102D100020912A0430912B04232B41F420910201AD
:102D20003091030130932B0420932A042091000159
:102D3000309101012115310541F42DB73EB7409185
:102D4000040150910501241B350BE0912A04F091F8
:102D50002B04E217F307A0F42E1B3F0B28173907AB
:102D600078F0AC014E5F5F4F2417350748F04E0FE7
:102D70005F1F50932B0440932A04819391939FCF1C
:102D8000F0E0E0E09CCFCF93DF930097E9F0FC0107
:102D9000329713821282A0912C04B0912D04ED0180
:102DA00030E020E01097A1F420813181820F931F41
:102DB00020912A0430912B042817390709F061C0AB
:102DC000F0932B04E0932A04DF91CF910895EA0158
:102DD000CE17DF07E8F54A815B819E014115510559
:102DE000B1F7E901FB83EA8349915991C40FD51FDB
:102DF000EC17FD0761F4808191810296840F951F85
:102E0000E90199838883828193819B838A83F0E09F
:102E1000E0E012968D919C9113970097B9F52D9152
:102E20003C911197CD010296820F931F20912A04A5
:102E300030912B042817390739F6309751F5109245
:102E40002D0410922C04B0932B04A0932A04BCCF21
:102E5000D383C28340815181840F951FC817D9073E
:102E600061F44E5F5F4F88819981480F591F5183EC
:102E700040838A819B81938382832115310509F0E8
:102E8000B0CFF0932D04E0932C049ECFFD01DC0124
:102E9000C0CF13821282D7CFB0E0A0E0E2E5F7E125
:102EA0000C949C148C01009751F4CB010E942716BE
:102EB0008C01C801CDB7DEB7E0E10C94B814FC0179
:102EC000E60FF71F9C0122503109E217F30708F4BF
:102ED0009DC0D901CD91DC911197C617D70798F005
:102EE000C530D10530F3CE0104978617970708F354
:102EF000C61BD70B2297C193D1936D937C93CF01BF
:102F00000E94C316D6CF5B01AC1ABD0A4C018C0ED1
:102F10009D1EA0912C04B0912D04512C412CF12C1C
:102F2000E12C109731F580912A0490912B0488159B
:102F3000990509F05CC04616570608F058C0809104
:102F4000000190910101009741F48DB79EB7409127
:102F5000040150910501841B950BE817F90708F04F
:102F600055C0F0932B04E0932A04F9017183608328
:102F7000A0CF8D919C91119712966C9012971396F9
:102F80007C901397A815B90559F56C0142E0C40E61
:102F9000D11CCA14DB0420F1AC014A195B09DA0127
:102FA0001296159780F06282738251834083D90113
:102FB0006D937C93E114F10471F0D7011396FC93A7
:102FC000EE93129776CF22968C0F9D1FF901918375
:102FD0008083F301EFCFF0932D04E0932C0469CFAD
:102FE0004816590608F42C017D01D3019ACFCB0174
:102FF0000E9427167C01009749F0AE01B8010E949B
:103000000918C8010E94C316870153CF10E000E0E1
:1030100050CFFB01DC0102C001900D9241505040A5
:10302000D8F70895FB01DC018D9101908019011002
:10303000D9F3990B0895FB01DC0101900D9200205A
:10304000E1F70895FB01DC014150504048F0019048
:103050000D920020C9F701C01D9241505040E0F789
:103060000895FB0151915523A9F0BF01DC014D9159
:1030700045174111E1F759F4CD010190002049F0C5
:103080004D9140154111C9F3FB014111EFCF81E092
:1030900090E00197089510E0CFEDD0E004C0FE016C
:1030A0000E9405162196C03ED107C9F7F894FFCFBC
:1030B00000002E04800000000000AB010B0138016D
:1030C000F801690147015B01000000007F030B016B
:1030D00052047E03DB03F3036603000000001904BF
:1030E0000B0152041404FF0222030F030D0A004FC8
:1030F0004B00496E697469616C697A696E672E2E3E
:103100002E0041540041542B434D47463D3100476A
:1031100050524D4300474E524D43004750474741A0
:1031200000474E474741004C617469747564653DC2
:103130002000204C6F6E6769747564653D200068DF
:103140007474703A2F2F454E5445525F594F555263
:103150005F574542534954452F67707364617461EA
:103160002E7068703F6C61743D00266C6E673D0088
:107E0000112484B714BE81FFF0D085E080938100F7
:107E100082E08093C00088E18093C10086E0809377
:107E2000C20080E18093C4008EE0C9D0259A86E02C
:107E300020E33CEF91E0309385002093840096BBD3
:107E4000B09BFECF1D9AA8958150A9F7CC24DD24C4
:107E500088248394B5E0AB2EA1E19A2EF3E0BF2EE7
:107E6000A2D0813461F49FD0082FAFD0023811F036
:107E7000013811F484E001C083E08DD089C08234E0
:107E800011F484E103C0853419F485E0A6D080C0E4
:107E9000853579F488D0E82EFF2485D0082F10E0AE
:107EA000102F00270E291F29000F111F8ED06801E7
:107EB0006FC0863521F484E090D080E0DECF843638
:107EC00009F040C070D06FD0082F6DD080E0C81688
:107ED00080E7D80618F4F601B7BEE895C0E0D1E017
:107EE00062D089930C17E1F7F0E0CF16F0E7DF06D8
:107EF00018F0F601B7BEE89568D007B600FCFDCFD4
:107F0000A601A0E0B1E02C9130E011968C91119780
:107F100090E0982F8827822B932B1296FA010C0160
:107F200087BEE89511244E5F5F4FF1E0A038BF0790
:107F300051F7F601A7BEE89507B600FCFDCF97BE46
:107F4000E89526C08437B1F42ED02DD0F82E2BD052
:107F50003CD0F601EF2C8F010F5F1F4F84911BD097
:107F6000EA94F801C1F70894C11CD11CFA94CF0C13
:107F7000D11C0EC0853739F428D08EE10CD085E9AC
:107F80000AD08FE07ACF813511F488E018D01DD067
:107F900080E101D065CF982F8091C00085FFFCCF94
:107FA0009093C60008958091C00087FFFCCF809118
:107FB000C00084FD01C0A8958091C6000895E0E648
:107FC000F0E098E1908380830895EDDF803219F02E
:107FD00088E0F5DFFFCF84E1DECF1F93182FE3DFCA
:107FE0001150E9F7F2DF1F91089580E0E8DFEE27F6
:047FF000FF270994CA
:027FFE00040479
:00000001FF
